{
  "contractName": "Kryptobrid",
  "abi": [
    {
      "inputs": [],
      "stateMutability": "nonpayable",
      "type": "constructor"
    },
    {
      "anonymous": false,
      "inputs": [
        {
          "indexed": true,
          "internalType": "address",
          "name": "owner",
          "type": "address"
        },
        {
          "indexed": true,
          "internalType": "address",
          "name": "approved",
          "type": "address"
        },
        {
          "indexed": true,
          "internalType": "uint256",
          "name": "tokenId",
          "type": "uint256"
        }
      ],
      "name": "Approval",
      "type": "event"
    },
    {
      "anonymous": false,
      "inputs": [
        {
          "indexed": true,
          "internalType": "address",
          "name": "owner",
          "type": "address"
        },
        {
          "indexed": true,
          "internalType": "address",
          "name": "operator",
          "type": "address"
        },
        {
          "indexed": false,
          "internalType": "bool",
          "name": "approved",
          "type": "bool"
        }
      ],
      "name": "ApprovalForAll",
      "type": "event"
    },
    {
      "anonymous": false,
      "inputs": [
        {
          "indexed": true,
          "internalType": "address",
          "name": "from",
          "type": "address"
        },
        {
          "indexed": true,
          "internalType": "address",
          "name": "to",
          "type": "address"
        },
        {
          "indexed": true,
          "internalType": "uint256",
          "name": "tokenId",
          "type": "uint256"
        }
      ],
      "name": "Transfer",
      "type": "event"
    },
    {
      "anonymous": false,
      "inputs": [
        {
          "indexed": false,
          "internalType": "address",
          "name": "from",
          "type": "address"
        },
        {
          "indexed": true,
          "internalType": "address",
          "name": "to",
          "type": "address"
        },
        {
          "indexed": true,
          "internalType": "uint256",
          "name": "tokenId",
          "type": "uint256"
        }
      ],
      "name": "_myTransfer",
      "type": "event"
    },
    {
      "inputs": [
        {
          "internalType": "address",
          "name": "",
          "type": "address"
        }
      ],
      "name": "_myaddressBalance",
      "outputs": [
        {
          "internalType": "uint256",
          "name": "",
          "type": "uint256"
        }
      ],
      "stateMutability": "view",
      "type": "function",
      "constant": true
    },
    {
      "inputs": [
        {
          "internalType": "address",
          "name": "",
          "type": "address"
        },
        {
          "internalType": "uint256",
          "name": "",
          "type": "uint256"
        }
      ],
      "name": "_myaddressToken",
      "outputs": [
        {
          "internalType": "uint256",
          "name": "",
          "type": "uint256"
        }
      ],
      "stateMutability": "view",
      "type": "function",
      "constant": true
    },
    {
      "inputs": [
        {
          "internalType": "uint256",
          "name": "",
          "type": "uint256"
        }
      ],
      "name": "_mytokenOwner",
      "outputs": [
        {
          "internalType": "address",
          "name": "",
          "type": "address"
        }
      ],
      "stateMutability": "view",
      "type": "function",
      "constant": true
    },
    {
      "inputs": [
        {
          "internalType": "string",
          "name": "",
          "type": "string"
        }
      ],
      "name": "_nftToAddress",
      "outputs": [
        {
          "internalType": "address",
          "name": "",
          "type": "address"
        }
      ],
      "stateMutability": "view",
      "type": "function",
      "constant": true
    },
    {
      "inputs": [
        {
          "internalType": "address",
          "name": "to",
          "type": "address"
        },
        {
          "internalType": "uint256",
          "name": "tokenId",
          "type": "uint256"
        }
      ],
      "name": "approve",
      "outputs": [],
      "stateMutability": "nonpayable",
      "type": "function"
    },
    {
      "inputs": [
        {
          "internalType": "address",
          "name": "owner",
          "type": "address"
        }
      ],
      "name": "balanceOf",
      "outputs": [
        {
          "internalType": "uint256",
          "name": "",
          "type": "uint256"
        }
      ],
      "stateMutability": "view",
      "type": "function",
      "constant": true
    },
    {
      "inputs": [
        {
          "internalType": "uint256",
          "name": "tokenId",
          "type": "uint256"
        }
      ],
      "name": "getApproved",
      "outputs": [
        {
          "internalType": "address",
          "name": "",
          "type": "address"
        }
      ],
      "stateMutability": "view",
      "type": "function",
      "constant": true
    },
    {
      "inputs": [
        {
          "internalType": "address",
          "name": "owner",
          "type": "address"
        },
        {
          "internalType": "address",
          "name": "operator",
          "type": "address"
        }
      ],
      "name": "isApprovedForAll",
      "outputs": [
        {
          "internalType": "bool",
          "name": "",
          "type": "bool"
        }
      ],
      "stateMutability": "view",
      "type": "function",
      "constant": true
    },
    {
      "inputs": [
        {
          "internalType": "uint256",
          "name": "",
          "type": "uint256"
        }
      ],
      "name": "kryptobirdz",
      "outputs": [
        {
          "internalType": "string",
          "name": "",
          "type": "string"
        }
      ],
      "stateMutability": "view",
      "type": "function",
      "constant": true
    },
    {
      "inputs": [],
      "name": "name",
      "outputs": [
        {
          "internalType": "string",
          "name": "",
          "type": "string"
        }
      ],
      "stateMutability": "view",
      "type": "function",
      "constant": true
    },
    {
      "inputs": [
        {
          "internalType": "uint256",
          "name": "tokenId",
          "type": "uint256"
        }
      ],
      "name": "ownerOf",
      "outputs": [
        {
          "internalType": "address",
          "name": "",
          "type": "address"
        }
      ],
      "stateMutability": "view",
      "type": "function",
      "constant": true
    },
    {
      "inputs": [
        {
          "internalType": "address",
          "name": "from",
          "type": "address"
        },
        {
          "internalType": "address",
          "name": "to",
          "type": "address"
        },
        {
          "internalType": "uint256",
          "name": "tokenId",
          "type": "uint256"
        }
      ],
      "name": "safeTransferFrom",
      "outputs": [],
      "stateMutability": "nonpayable",
      "type": "function"
    },
    {
      "inputs": [
        {
          "internalType": "address",
          "name": "from",
          "type": "address"
        },
        {
          "internalType": "address",
          "name": "to",
          "type": "address"
        },
        {
          "internalType": "uint256",
          "name": "tokenId",
          "type": "uint256"
        },
        {
          "internalType": "bytes",
          "name": "_data",
          "type": "bytes"
        }
      ],
      "name": "safeTransferFrom",
      "outputs": [],
      "stateMutability": "nonpayable",
      "type": "function"
    },
    {
      "inputs": [
        {
          "internalType": "address",
          "name": "operator",
          "type": "address"
        },
        {
          "internalType": "bool",
          "name": "approved",
          "type": "bool"
        }
      ],
      "name": "setApprovalForAll",
      "outputs": [],
      "stateMutability": "nonpayable",
      "type": "function"
    },
    {
      "inputs": [
        {
          "internalType": "bytes4",
          "name": "interfaceId",
          "type": "bytes4"
        }
      ],
      "name": "supportsInterface",
      "outputs": [
        {
          "internalType": "bool",
          "name": "",
          "type": "bool"
        }
      ],
      "stateMutability": "view",
      "type": "function",
      "constant": true
    },
    {
      "inputs": [],
      "name": "symbol",
      "outputs": [
        {
          "internalType": "string",
          "name": "",
          "type": "string"
        }
      ],
      "stateMutability": "view",
      "type": "function",
      "constant": true
    },
    {
      "inputs": [],
      "name": "tokenCounter",
      "outputs": [
        {
          "internalType": "uint256",
          "name": "",
          "type": "uint256"
        }
      ],
      "stateMutability": "view",
      "type": "function",
      "constant": true
    },
    {
      "inputs": [
        {
          "internalType": "uint256",
          "name": "tokenId",
          "type": "uint256"
        }
      ],
      "name": "tokenURI",
      "outputs": [
        {
          "internalType": "string",
          "name": "",
          "type": "string"
        }
      ],
      "stateMutability": "view",
      "type": "function",
      "constant": true
    },
    {
      "inputs": [
        {
          "internalType": "address",
          "name": "from",
          "type": "address"
        },
        {
          "internalType": "address",
          "name": "to",
          "type": "address"
        },
        {
          "internalType": "uint256",
          "name": "tokenId",
          "type": "uint256"
        }
      ],
      "name": "transferFrom",
      "outputs": [],
      "stateMutability": "nonpayable",
      "type": "function"
    },
    {
      "inputs": [
        {
          "internalType": "string",
          "name": "_Kryptobird",
          "type": "string"
        }
      ],
      "name": "myMint",
      "outputs": [],
      "stateMutability": "nonpayable",
      "type": "function"
    },
    {
      "inputs": [
        {
          "internalType": "address",
          "name": "owner",
          "type": "address"
        }
      ],
      "name": "myBalance",
      "outputs": [
        {
          "internalType": "uint256",
          "name": "",
          "type": "uint256"
        }
      ],
      "stateMutability": "view",
      "type": "function",
      "constant": true
    },
    {
      "inputs": [],
      "name": "_test",
      "outputs": [
        {
          "internalType": "uint256",
          "name": "",
          "type": "uint256"
        }
      ],
      "stateMutability": "view",
      "type": "function",
      "constant": true
    }
  ],
  "bytecode": "0x6080604052600a6007553480156200001657600080fd5b506040518060400160405280600a81526020017f4b727970746f62697264000000000000000000000000000000000000000000008152506040518060400160405280600681526020017f4b424952445a000000000000000000000000000000000000000000000000000081525081600090805190602001906200009b929190620000c5565b508060019080519060200190620000b4929190620000c5565b5050506000600881905550620001d9565b828054620000d390620001a4565b90600052602060002090601f016020900481019282620000f7576000855562000143565b82601f106200011257805160ff191683800117855562000143565b8280016001018555821562000143579182015b828111156200014257825182559160200191906001019062000125565b5b50905062000152919062000156565b5090565b5b808211156200017157600081600090555060010162000157565b5090565b7f4e487b7100000000000000000000000000000000000000000000000000000000600052602260045260246000fd5b60006002820490506001821680620001bd57607f821691505b602082108103620001d357620001d262000175565b5b50919050565b61313180620001e96000396000f3fe608060405234801561001057600080fd5b50600436106101425760003560e01c80637e4bfa62116100b8578063b88d4fde1161007c578063b88d4fde146103c1578063c87b56dd146103dd578063d082e3811461040d578063e985e9c51461042b578063f5ac53251461045b578063fd6fb0751461047757610142565b80637e4bfa6214610309578063817a5e141461033957806395d89b4114610369578063a22cb46514610387578063a6246d09146103a357610142565b806323b872dd1161010a57806323b872dd146102115780632f7307151461022d57806336a129a31461025d57806342842e0e1461028d5780636352211e146102a957806370a08231146102d957610142565b806301ffc9a71461014757806306fdde0314610177578063081812fc14610195578063095ea7b3146101c55780631b5d8efc146101e1575b600080fd5b610161600480360381019061015c9190611e25565b6104a7565b60405161016e9190611e6d565b60405180910390f35b61017f610589565b60405161018c9190611f21565b60405180910390f35b6101af60048036038101906101aa9190611f79565b61061b565b6040516101bc9190611fe7565b60405180910390f35b6101df60048036038101906101da919061202e565b6106a0565b005b6101fb60048036038101906101f691906121a3565b6107b7565b6040516102089190611fe7565b60405180910390f35b61022b600480360381019061022691906121ec565b610800565b005b6102476004803603810190610242919061202e565b610860565b604051610254919061224e565b60405180910390f35b61027760048036038101906102729190611f79565b610891565b6040516102849190611f21565b60405180910390f35b6102a760048036038101906102a291906121ec565b61093d565b005b6102c360048036038101906102be9190611f79565b61095d565b6040516102d09190611fe7565b60405180910390f35b6102f360048036038101906102ee9190612269565b610a0e565b604051610300919061224e565b60405180910390f35b610323600480360381019061031e9190612269565b610ac5565b604051610330919061224e565b60405180910390f35b610353600480360381019061034e9190612269565b610add565b604051610360919061224e565b60405180910390f35b610371610b94565b60405161037e9190611f21565b60405180910390f35b6103a1600480360381019061039c91906122c2565b610c26565b005b6103ab610c3c565b6040516103b8919061224e565b60405180910390f35b6103db60048036038101906103d691906123a3565b610c46565b005b6103f760048036038101906103f29190611f79565b610ca8565b6040516104049190611f21565b60405180910390f35b610415610df9565b604051610422919061224e565b60405180910390f35b61044560048036038101906104409190612426565b610dff565b6040516104529190611e6d565b60405180910390f35b610475600480360381019061047091906121a3565b610e93565b005b610491600480360381019061048c9190611f79565b610ffd565b60405161049e9190611fe7565b60405180910390f35b60007f80ac58cd000000000000000000000000000000000000000000000000000000007bffffffffffffffffffffffffffffffffffffffffffffffffffffffff1916827bffffffffffffffffffffffffffffffffffffffffffffffffffffffff1916148061057257507f5b5e139f000000000000000000000000000000000000000000000000000000007bffffffffffffffffffffffffffffffffffffffffffffffffffffffff1916827bffffffffffffffffffffffffffffffffffffffffffffffffffffffff1916145b80610582575061058182611030565b5b9050919050565b60606000805461059890612495565b80601f01602080910402602001604051908101604052809291908181526020018280546105c490612495565b80156106115780601f106105e657610100808354040283529160200191610611565b820191906000526020600020905b8154815290600101906020018083116105f457829003601f168201915b5050505050905090565b60006106268261109a565b610665576040517f08c379a000000000000000000000000000000000000000000000000000000000815260040161065c90612538565b60405180910390fd5b6004600083815260200190815260200160002060009054906101000a900473ffffffffffffffffffffffffffffffffffffffff169050919050565b60006106ab8261095d565b90508073ffffffffffffffffffffffffffffffffffffffff168373ffffffffffffffffffffffffffffffffffffffff160361071b576040517f08c379a0000000000000000000000000000000000000000000000000000000008152600401610712906125ca565b60405180910390fd5b8073ffffffffffffffffffffffffffffffffffffffff1661073a611106565b73ffffffffffffffffffffffffffffffffffffffff161480610769575061076881610763611106565b610dff565b5b6107a8576040517f08c379a000000000000000000000000000000000000000000000000000000000815260040161079f9061265c565b60405180910390fd5b6107b2838361110e565b505050565b600a818051602081018201805184825260208301602085012081835280955050505050506000915054906101000a900473ffffffffffffffffffffffffffffffffffffffff1681565b61081161080b611106565b826111c7565b610850576040517f08c379a0000000000000000000000000000000000000000000000000000000008152600401610847906126ee565b60405180910390fd5b61085b8383836112a5565b505050565b600d602052816000526040600020818154811061087c57600080fd5b90600052602060002001600091509150505481565b600981815481106108a157600080fd5b9060005260206000200160009150905080546108bc90612495565b80601f01602080910402602001604051908101604052809291908181526020018280546108e890612495565b80156109355780601f1061090a57610100808354040283529160200191610935565b820191906000526020600020905b81548152906001019060200180831161091857829003601f168201915b505050505081565b61095883838360405180602001604052806000815250610c46565b505050565b6000806002600084815260200190815260200160002060009054906101000a900473ffffffffffffffffffffffffffffffffffffffff169050600073ffffffffffffffffffffffffffffffffffffffff168173ffffffffffffffffffffffffffffffffffffffff1603610a05576040517f08c379a00000000000000000000000000000000000000000000000000000000081526004016109fc90612780565b60405180910390fd5b80915050919050565b60008073ffffffffffffffffffffffffffffffffffffffff168273ffffffffffffffffffffffffffffffffffffffff1603610a7e576040517f08c379a0000000000000000000000000000000000000000000000000000000008152600401610a7590612812565b60405180910390fd5b600360008373ffffffffffffffffffffffffffffffffffffffff1673ffffffffffffffffffffffffffffffffffffffff168152602001908152602001600020549050919050565b600c6020528060005260406000206000915090505481565b60008073ffffffffffffffffffffffffffffffffffffffff168273ffffffffffffffffffffffffffffffffffffffff1603610b4d576040517f08c379a0000000000000000000000000000000000000000000000000000000008152600401610b449061287e565b60405180910390fd5b600c60008373ffffffffffffffffffffffffffffffffffffffff1673ffffffffffffffffffffffffffffffffffffffff168152602001908152602001600020549050919050565b606060018054610ba390612495565b80601f0160208091040260200160405190810160405280929190818152602001828054610bcf90612495565b8015610c1c5780601f10610bf157610100808354040283529160200191610c1c565b820191906000526020600020905b815481529060010190602001808311610bff57829003601f168201915b5050505050905090565b610c38610c31611106565b838361150b565b5050565b6000600854905090565b610c57610c51611106565b836111c7565b610c96576040517f08c379a0000000000000000000000000000000000000000000000000000000008152600401610c8d906126ee565b60405180910390fd5b610ca284848484611677565b50505050565b6060610cb38261109a565b610cf2576040517f08c379a0000000000000000000000000000000000000000000000000000000008152600401610ce990612910565b60405180910390fd5b6000600660008481526020019081526020016000208054610d1290612495565b80601f0160208091040260200160405190810160405280929190818152602001828054610d3e90612495565b8015610d8b5780601f10610d6057610100808354040283529160200191610d8b565b820191906000526020600020905b815481529060010190602001808311610d6e57829003601f168201915b505050505090506000610d9c6116d3565b90506000815103610db1578192505050610df4565b600082511115610de6578082604051602001610dce92919061296c565b60405160208183030381529060405292505050610df4565b610def846116ea565b925050505b919050565b60085481565b6000600560008473ffffffffffffffffffffffffffffffffffffffff1673ffffffffffffffffffffffffffffffffffffffff16815260200190815260200160002060008373ffffffffffffffffffffffffffffffffffffffff1673ffffffffffffffffffffffffffffffffffffffff16815260200190815260200160002060009054906101000a900460ff16905092915050565b600073ffffffffffffffffffffffffffffffffffffffff16600a82604051610ebb9190612990565b908152602001604051809103902060009054906101000a900473ffffffffffffffffffffffffffffffffffffffff1673ffffffffffffffffffffffffffffffffffffffff1614610f40576040517f08c379a0000000000000000000000000000000000000000000000000000000008152600401610f37906129f3565b60405180910390fd5b600981908060018154018082558091505060019003906000526020600020016000909190919091509080519060200190610f7b929190611d16565b5060006001600980549050610f909190612a42565b905033600a83604051610fa39190612990565b908152602001604051809103902060006101000a81548173ffffffffffffffffffffffffffffffffffffffff021916908373ffffffffffffffffffffffffffffffffffffffff160217905550610ff93382611791565b5050565b600b6020528060005260406000206000915054906101000a900473ffffffffffffffffffffffffffffffffffffffff1681565b60007f01ffc9a7000000000000000000000000000000000000000000000000000000007bffffffffffffffffffffffffffffffffffffffffffffffffffffffff1916827bffffffffffffffffffffffffffffffffffffffffffffffffffffffff1916149050919050565b60008073ffffffffffffffffffffffffffffffffffffffff166002600084815260200190815260200160002060009054906101000a900473ffffffffffffffffffffffffffffffffffffffff1673ffffffffffffffffffffffffffffffffffffffff1614159050919050565b600033905090565b816004600083815260200190815260200160002060006101000a81548173ffffffffffffffffffffffffffffffffffffffff021916908373ffffffffffffffffffffffffffffffffffffffff160217905550808273ffffffffffffffffffffffffffffffffffffffff166111818361095d565b73ffffffffffffffffffffffffffffffffffffffff167f8c5be1e5ebec7d5bd14f71427d1e84f3dd0314c0f7b2291e5b200ac8c7c3b92560405160405180910390a45050565b60006111d28261109a565b611211576040517f08c379a000000000000000000000000000000000000000000000000000000000815260040161120890612ae8565b60405180910390fd5b600061121c8361095d565b90508073ffffffffffffffffffffffffffffffffffffffff168473ffffffffffffffffffffffffffffffffffffffff16148061128b57508373ffffffffffffffffffffffffffffffffffffffff166112738461061b565b73ffffffffffffffffffffffffffffffffffffffff16145b8061129c575061129b8185610dff565b5b91505092915050565b8273ffffffffffffffffffffffffffffffffffffffff166112c58261095d565b73ffffffffffffffffffffffffffffffffffffffff161461131b576040517f08c379a000000000000000000000000000000000000000000000000000000000815260040161131290612b7a565b60405180910390fd5b600073ffffffffffffffffffffffffffffffffffffffff168273ffffffffffffffffffffffffffffffffffffffff160361138a576040517f08c379a000000000000000000000000000000000000000000000000000000000815260040161138190612c0c565b60405180910390fd5b611395838383611a02565b6113a060008261110e565b6001600360008573ffffffffffffffffffffffffffffffffffffffff1673ffffffffffffffffffffffffffffffffffffffff16815260200190815260200160002060008282546113f09190612a42565b925050819055506001600360008473ffffffffffffffffffffffffffffffffffffffff1673ffffffffffffffffffffffffffffffffffffffff16815260200190815260200160002060008282546114479190612c2c565b92505081905550816002600083815260200190815260200160002060006101000a81548173ffffffffffffffffffffffffffffffffffffffff021916908373ffffffffffffffffffffffffffffffffffffffff160217905550808273ffffffffffffffffffffffffffffffffffffffff168473ffffffffffffffffffffffffffffffffffffffff167fddf252ad1be2c89b69c2b068fc378daa952ba7f163c4a11628f55a4df523b3ef60405160405180910390a4611506838383611a07565b505050565b8173ffffffffffffffffffffffffffffffffffffffff168373ffffffffffffffffffffffffffffffffffffffff1603611579576040517f08c379a000000000000000000000000000000000000000000000000000000000815260040161157090612cce565b60405180910390fd5b80600560008573ffffffffffffffffffffffffffffffffffffffff1673ffffffffffffffffffffffffffffffffffffffff16815260200190815260200160002060008473ffffffffffffffffffffffffffffffffffffffff1673ffffffffffffffffffffffffffffffffffffffff16815260200190815260200160002060006101000a81548160ff0219169083151502179055508173ffffffffffffffffffffffffffffffffffffffff168373ffffffffffffffffffffffffffffffffffffffff167f17307eab39ab6107e8899845ad3d59bd9653f200f220920489ca2b5937696c318360405161166a9190611e6d565b60405180910390a3505050565b6116828484846112a5565b61168e84848484611a0c565b6116cd576040517f08c379a00000000000000000000000000000000000000000000000000000000081526004016116c490612d60565b60405180910390fd5b50505050565b606060405180602001604052806000815250905090565b60606116f58261109a565b611734576040517f08c379a000000000000000000000000000000000000000000000000000000000815260040161172b90612df2565b60405180910390fd5b600061173e6116d3565b9050600081511161175e5760405180602001604052806000815250611789565b8061176884611b93565b60405160200161177992919061296c565b6040516020818303038152906040525b915050919050565b600073ffffffffffffffffffffffffffffffffffffffff168273ffffffffffffffffffffffffffffffffffffffff1603611800576040517f08c379a00000000000000000000000000000000000000000000000000000000081526004016117f790612e84565b60405180910390fd5b600073ffffffffffffffffffffffffffffffffffffffff16600b600083815260200190815260200160002060009054906101000a900473ffffffffffffffffffffffffffffffffffffffff1673ffffffffffffffffffffffffffffffffffffffff16146118a2576040517f08c379a000000000000000000000000000000000000000000000000000000000815260040161189990612ef0565b60405180910390fd5b81600b600083815260200190815260200160002060006101000a81548173ffffffffffffffffffffffffffffffffffffffff021916908373ffffffffffffffffffffffffffffffffffffffff160217905550600c60008373ffffffffffffffffffffffffffffffffffffffff1673ffffffffffffffffffffffffffffffffffffffff168152602001908152602001600020600081548092919061194490612f10565b9190505550600d60008373ffffffffffffffffffffffffffffffffffffffff1673ffffffffffffffffffffffffffffffffffffffff168152602001908152602001600020819080600181540180825580915050600190039060005260206000200160009091909190915055808273ffffffffffffffffffffffffffffffffffffffff167f0886b71f07225ae92d34ee0291389c271aa474c3681ec23c6a63d38825cd0110306040516119f69190611fe7565b60405180910390a35050565b505050565b505050565b6000611a2d8473ffffffffffffffffffffffffffffffffffffffff16611cf3565b15611b86578373ffffffffffffffffffffffffffffffffffffffff1663150b7a02611a56611106565b8786866040518563ffffffff1660e01b8152600401611a789493929190612fad565b6020604051808303816000875af1925050508015611ab457506040513d601f19601f82011682018060405250810190611ab1919061300e565b60015b611b36573d8060008114611ae4576040519150601f19603f3d011682016040523d82523d6000602084013e611ae9565b606091505b506000815103611b2e576040517f08c379a0000000000000000000000000000000000000000000000000000000008152600401611b2590612d60565b60405180910390fd5b805181602001fd5b63150b7a0260e01b7bffffffffffffffffffffffffffffffffffffffffffffffffffffffff1916817bffffffffffffffffffffffffffffffffffffffffffffffffffffffff191614915050611b8b565b600190505b949350505050565b606060008203611bda576040518060400160405280600181526020017f30000000000000000000000000000000000000000000000000000000000000008152509050611cee565b600082905060005b60008214611c0c578080611bf590612f10565b915050600a82611c05919061306a565b9150611be2565b60008167ffffffffffffffff811115611c2857611c27612078565b5b6040519080825280601f01601f191660200182016040528015611c5a5781602001600182028036833780820191505090505b5090505b60008514611ce757600182611c739190612a42565b9150600a85611c82919061309b565b6030611c8e9190612c2c565b60f81b818381518110611ca457611ca36130cc565b5b60200101907effffffffffffffffffffffffffffffffffffffffffffffffffffffffffffff1916908160001a905350600a85611ce0919061306a565b9450611c5e565b8093505050505b919050565b6000808273ffffffffffffffffffffffffffffffffffffffff163b119050919050565b828054611d2290612495565b90600052602060002090601f016020900481019282611d445760008555611d8b565b82601f10611d5d57805160ff1916838001178555611d8b565b82800160010185558215611d8b579182015b82811115611d8a578251825591602001919060010190611d6f565b5b509050611d989190611d9c565b5090565b5b80821115611db5576000816000905550600101611d9d565b5090565b6000604051905090565b600080fd5b600080fd5b60007fffffffff0000000000000000000000000000000000000000000000000000000082169050919050565b611e0281611dcd565b8114611e0d57600080fd5b50565b600081359050611e1f81611df9565b92915050565b600060208284031215611e3b57611e3a611dc3565b5b6000611e4984828501611e10565b91505092915050565b60008115159050919050565b611e6781611e52565b82525050565b6000602082019050611e826000830184611e5e565b92915050565b600081519050919050565b600082825260208201905092915050565b60005b83811015611ec2578082015181840152602081019050611ea7565b83811115611ed1576000848401525b50505050565b6000601f19601f8301169050919050565b6000611ef382611e88565b611efd8185611e93565b9350611f0d818560208601611ea4565b611f1681611ed7565b840191505092915050565b60006020820190508181036000830152611f3b8184611ee8565b905092915050565b6000819050919050565b611f5681611f43565b8114611f6157600080fd5b50565b600081359050611f7381611f4d565b92915050565b600060208284031215611f8f57611f8e611dc3565b5b6000611f9d84828501611f64565b91505092915050565b600073ffffffffffffffffffffffffffffffffffffffff82169050919050565b6000611fd182611fa6565b9050919050565b611fe181611fc6565b82525050565b6000602082019050611ffc6000830184611fd8565b92915050565b61200b81611fc6565b811461201657600080fd5b50565b60008135905061202881612002565b92915050565b6000806040838503121561204557612044611dc3565b5b600061205385828601612019565b925050602061206485828601611f64565b9150509250929050565b600080fd5b600080fd5b7f4e487b7100000000000000000000000000000000000000000000000000000000600052604160045260246000fd5b6120b082611ed7565b810181811067ffffffffffffffff821117156120cf576120ce612078565b5b80604052505050565b60006120e2611db9565b90506120ee82826120a7565b919050565b600067ffffffffffffffff82111561210e5761210d612078565b5b61211782611ed7565b9050602081019050919050565b82818337600083830152505050565b6000612146612141846120f3565b6120d8565b90508281526020810184848401111561216257612161612073565b5b61216d848285612124565b509392505050565b600082601f83011261218a5761218961206e565b5b813561219a848260208601612133565b91505092915050565b6000602082840312156121b9576121b8611dc3565b5b600082013567ffffffffffffffff8111156121d7576121d6611dc8565b5b6121e384828501612175565b91505092915050565b60008060006060848603121561220557612204611dc3565b5b600061221386828701612019565b935050602061222486828701612019565b925050604061223586828701611f64565b9150509250925092565b61224881611f43565b82525050565b6000602082019050612263600083018461223f565b92915050565b60006020828403121561227f5761227e611dc3565b5b600061228d84828501612019565b91505092915050565b61229f81611e52565b81146122aa57600080fd5b50565b6000813590506122bc81612296565b92915050565b600080604083850312156122d9576122d8611dc3565b5b60006122e785828601612019565b92505060206122f8858286016122ad565b9150509250929050565b600067ffffffffffffffff82111561231d5761231c612078565b5b61232682611ed7565b9050602081019050919050565b600061234661234184612302565b6120d8565b90508281526020810184848401111561236257612361612073565b5b61236d848285612124565b509392505050565b600082601f83011261238a5761238961206e565b5b813561239a848260208601612333565b91505092915050565b600080600080608085870312156123bd576123bc611dc3565b5b60006123cb87828801612019565b94505060206123dc87828801612019565b93505060406123ed87828801611f64565b925050606085013567ffffffffffffffff81111561240e5761240d611dc8565b5b61241a87828801612375565b91505092959194509250565b6000806040838503121561243d5761243c611dc3565b5b600061244b85828601612019565b925050602061245c85828601612019565b9150509250929050565b7f4e487b7100000000000000000000000000000000000000000000000000000000600052602260045260246000fd5b600060028204905060018216806124ad57607f821691505b6020821081036124c0576124bf612466565b5b50919050565b7f4552433732313a20617070726f76656420717565727920666f72206e6f6e657860008201527f697374656e7420746f6b656e0000000000000000000000000000000000000000602082015250565b6000612522602c83611e93565b915061252d826124c6565b604082019050919050565b6000602082019050818103600083015261255181612515565b9050919050565b7f4552433732313a20617070726f76616c20746f2063757272656e74206f776e6560008201527f7200000000000000000000000000000000000000000000000000000000000000602082015250565b60006125b4602183611e93565b91506125bf82612558565b604082019050919050565b600060208201905081810360008301526125e3816125a7565b9050919050565b7f4552433732313a20617070726f76652063616c6c6572206973206e6f74206f7760008201527f6e6572206e6f7220617070726f76656420666f7220616c6c0000000000000000602082015250565b6000612646603883611e93565b9150612651826125ea565b604082019050919050565b6000602082019050818103600083015261267581612639565b9050919050565b7f4552433732313a207472616e736665722063616c6c6572206973206e6f74206f60008201527f776e6572206e6f7220617070726f766564000000000000000000000000000000602082015250565b60006126d8603183611e93565b91506126e38261267c565b604082019050919050565b60006020820190508181036000830152612707816126cb565b9050919050565b7f4552433732313a206f776e657220717565727920666f72206e6f6e657869737460008201527f656e7420746f6b656e0000000000000000000000000000000000000000000000602082015250565b600061276a602983611e93565b91506127758261270e565b604082019050919050565b600060208201905081810360008301526127998161275d565b9050919050565b7f4552433732313a2062616c616e636520717565727920666f7220746865207a6560008201527f726f206164647265737300000000000000000000000000000000000000000000602082015250565b60006127fc602a83611e93565b9150612807826127a0565b604082019050919050565b6000602082019050818103600083015261282b816127ef565b9050919050565b7f4572726f72202d206f776e6572206e6f74206578697374000000000000000000600082015250565b6000612868601783611e93565b915061287382612832565b602082019050919050565b600060208201905081810360008301526128978161285b565b9050919050565b7f45524337323155524953746f726167653a2055524920717565727920666f722060008201527f6e6f6e6578697374656e7420746f6b656e000000000000000000000000000000602082015250565b60006128fa603183611e93565b91506129058261289e565b604082019050919050565b60006020820190508181036000830152612929816128ed565b9050919050565b600081905092915050565b600061294682611e88565b6129508185612930565b9350612960818560208601611ea4565b80840191505092915050565b6000612978828561293b565b9150612984828461293b565b91508190509392505050565b600061299c828461293b565b915081905092915050565b7f4572726f72202d204e4654206e616d6520697320757365640000000000000000600082015250565b60006129dd601883611e93565b91506129e8826129a7565b602082019050919050565b60006020820190508181036000830152612a0c816129d0565b9050919050565b7f4e487b7100000000000000000000000000000000000000000000000000000000600052601160045260246000fd5b6000612a4d82611f43565b9150612a5883611f43565b925082821015612a6b57612a6a612a13565b5b828203905092915050565b7f4552433732313a206f70657261746f7220717565727920666f72206e6f6e657860008201527f697374656e7420746f6b656e0000000000000000000000000000000000000000602082015250565b6000612ad2602c83611e93565b9150612add82612a76565b604082019050919050565b60006020820190508181036000830152612b0181612ac5565b9050919050565b7f4552433732313a207472616e736665722066726f6d20696e636f72726563742060008201527f6f776e6572000000000000000000000000000000000000000000000000000000602082015250565b6000612b64602583611e93565b9150612b6f82612b08565b604082019050919050565b60006020820190508181036000830152612b9381612b57565b9050919050565b7f4552433732313a207472616e7366657220746f20746865207a65726f2061646460008201527f7265737300000000000000000000000000000000000000000000000000000000602082015250565b6000612bf6602483611e93565b9150612c0182612b9a565b604082019050919050565b60006020820190508181036000830152612c2581612be9565b9050919050565b6000612c3782611f43565b9150612c4283611f43565b9250827fffffffffffffffffffffffffffffffffffffffffffffffffffffffffffffffff03821115612c7757612c76612a13565b5b828201905092915050565b7f4552433732313a20617070726f766520746f2063616c6c657200000000000000600082015250565b6000612cb8601983611e93565b9150612cc382612c82565b602082019050919050565b60006020820190508181036000830152612ce781612cab565b9050919050565b7f4552433732313a207472616e7366657220746f206e6f6e20455243373231526560008201527f63656976657220696d706c656d656e7465720000000000000000000000000000602082015250565b6000612d4a603283611e93565b9150612d5582612cee565b604082019050919050565b60006020820190508181036000830152612d7981612d3d565b9050919050565b7f4552433732314d657461646174613a2055524920717565727920666f72206e6f60008201527f6e6578697374656e7420746f6b656e0000000000000000000000000000000000602082015250565b6000612ddc602f83611e93565b9150612de782612d80565b604082019050919050565b60006020820190508181036000830152612e0b81612dcf565b9050919050565b7f4572726f72202d204552433732313a6d696e74696e6720746f20746865207a6560008201527f726f206164647265737300000000000000000000000000000000000000000000602082015250565b6000612e6e602a83611e93565b9150612e7982612e12565b604082019050919050565b60006020820190508181036000830152612e9d81612e61565b9050919050565b7f4572726f72202d20544f4b454e20686173206265656e206d696e746564000000600082015250565b6000612eda601d83611e93565b9150612ee582612ea4565b602082019050919050565b60006020820190508181036000830152612f0981612ecd565b9050919050565b6000612f1b82611f43565b91507fffffffffffffffffffffffffffffffffffffffffffffffffffffffffffffffff8203612f4d57612f4c612a13565b5b600182019050919050565b600081519050919050565b600082825260208201905092915050565b6000612f7f82612f58565b612f898185612f63565b9350612f99818560208601611ea4565b612fa281611ed7565b840191505092915050565b6000608082019050612fc26000830187611fd8565b612fcf6020830186611fd8565b612fdc604083018561223f565b8181036060830152612fee8184612f74565b905095945050505050565b60008151905061300881611df9565b92915050565b60006020828403121561302457613023611dc3565b5b600061303284828501612ff9565b91505092915050565b7f4e487b7100000000000000000000000000000000000000000000000000000000600052601260045260246000fd5b600061307582611f43565b915061308083611f43565b9250826130905761308f61303b565b5b828204905092915050565b60006130a682611f43565b91506130b183611f43565b9250826130c1576130c061303b565b5b828206905092915050565b7f4e487b7100000000000000000000000000000000000000000000000000000000600052603260045260246000fdfea2646970667358221220bb482e1e1a2775f17e05bc30c3e867fe57f0b259f10d4ff8ccf1aefdef2e586964736f6c634300080d0033",
  "immutableReferences": {},
  "source": "// SPDX-License-Identifier: MIT\npragma solidity ^0.8.0;\n\nimport \"@openzeppelin/contracts/token/ERC721/ERC721.sol\";\nimport \"@openzeppelin/contracts/token/ERC721/extensions/ERC721URIStorage.sol\";\nimport \"@openzeppelin/contracts/utils/Counters.sol\";\n\ncontract Kryptobrid is ERC721URIStorage {\n    uint256 public tokenCounter;\n\n    constructor() ERC721(\"Kryptobird\", \"KBIRDZ\") {\n        tokenCounter = 0;\n    }\n\n    string[] public kryptobirdz; // NFT name\n    mapping(string => address) public _nftToAddress; // NFT to address\n\n    mapping(uint256 => address) public _mytokenOwner;\n    mapping(address => uint256) public _myaddressBalance;\n    mapping(address => uint256[]) public _myaddressToken;\n    event _myTransfer(\n        address from,\n        address indexed to,\n        uint256 indexed tokenId\n    );\n\n    function myMint(string memory _Kryptobird) public virtual {\n        require(\n            _nftToAddress[_Kryptobird] == address(0),\n            \"Error - NFT name is used\"\n        );\n        kryptobirdz.push(_Kryptobird);\n        uint256 _id = kryptobirdz.length - 1;\n        _nftToAddress[_Kryptobird] = msg.sender;\n        _myMint(msg.sender, _id);\n    }\n\n    function myBalance(address owner) public view returns (uint256) {\n        require(owner != address(0), \"Error - owner not exist\");\n        return _myaddressBalance[owner];\n    }\n\n    function _myMint(address to, uint256 tokenId) internal {\n        require(to != address(0), \"Error - ERC721:minting to the zero address\");\n        require(\n            _mytokenOwner[tokenId] == address(0),\n            \"Error - TOKEN has been minted\"\n        );\n        _mytokenOwner[tokenId] = to;\n        _myaddressBalance[to]++;\n        _myaddressToken[to].push(tokenId);\n        emit _myTransfer(address(this), to, tokenId);\n    }\n\n    function _test() public view override(ERC721URIStorage) returns (uint256) {\n        return tokenCounter;\n    }\n}\n",
  "sourcePath": "/Users/xingmingzhe/Desktop/React/udemy_nft/src/contracts/Kryptobirdz.sol",
  "compiler": {
    "name": "solc",
    "version": "0.8.13+commit.abaa5c0e.Emscripten.clang"
  },
  "schemaVersion": "3.4.7",
  "updatedAt": "2022-04-14T07:03:46.045Z",
  "networkType": "ethereum",
  "devdoc": {
    "kind": "dev",
    "methods": {
      "approve(address,uint256)": {
        "details": "See {IERC721-approve}."
      },
      "balanceOf(address)": {
        "details": "See {IERC721-balanceOf}."
      },
      "getApproved(uint256)": {
        "details": "See {IERC721-getApproved}."
      },
      "isApprovedForAll(address,address)": {
        "details": "See {IERC721-isApprovedForAll}."
      },
      "name()": {
        "details": "See {IERC721Metadata-name}."
      },
      "ownerOf(uint256)": {
        "details": "See {IERC721-ownerOf}."
      },
      "safeTransferFrom(address,address,uint256)": {
        "details": "See {IERC721-safeTransferFrom}."
      },
      "safeTransferFrom(address,address,uint256,bytes)": {
        "details": "See {IERC721-safeTransferFrom}."
      },
      "setApprovalForAll(address,bool)": {
        "details": "See {IERC721-setApprovalForAll}."
      },
      "supportsInterface(bytes4)": {
        "details": "See {IERC165-supportsInterface}."
      },
      "symbol()": {
        "details": "See {IERC721Metadata-symbol}."
      },
      "tokenURI(uint256)": {
        "details": "See {IERC721Metadata-tokenURI}."
      },
      "transferFrom(address,address,uint256)": {
        "details": "See {IERC721-transferFrom}."
      }
    },
    "version": 1
  },
  "userdoc": {
    "kind": "user",
    "methods": {},
    "version": 1
  }
}